{
  "abi": [
    {
      "inputs": [],
      "stateMutability": "nonpayable",
      "type": "constructor"
    },
    {
      "anonymous": false,
      "inputs": [
        {
          "indexed": true,
          "internalType": "address",
          "name": "_owner",
          "type": "address"
        },
        {
          "indexed": true,
          "internalType": "address",
          "name": "_approved",
          "type": "address"
        },
        {
          "indexed": true,
          "internalType": "uint256",
          "name": "_tokenId",
          "type": "uint256"
        }
      ],
      "name": "Approval",
      "type": "event"
    },
    {
      "anonymous": false,
      "inputs": [
        {
          "indexed": true,
          "internalType": "address",
          "name": "_owner",
          "type": "address"
        },
        {
          "indexed": true,
          "internalType": "address",
          "name": "_operator",
          "type": "address"
        },
        {
          "indexed": false,
          "internalType": "bool",
          "name": "_approved",
          "type": "bool"
        }
      ],
      "name": "ApprovalForAll",
      "type": "event"
    },
    {
      "anonymous": false,
      "inputs": [
        {
          "indexed": true,
          "internalType": "address",
          "name": "previousOwner",
          "type": "address"
        },
        {
          "indexed": true,
          "internalType": "address",
          "name": "newOwner",
          "type": "address"
        }
      ],
      "name": "OwnershipTransferred",
      "type": "event"
    },
    {
      "anonymous": false,
      "inputs": [
        {
          "indexed": true,
          "internalType": "address",
          "name": "_from",
          "type": "address"
        },
        {
          "indexed": true,
          "internalType": "address",
          "name": "_to",
          "type": "address"
        },
        {
          "indexed": true,
          "internalType": "uint256",
          "name": "_tokenId",
          "type": "uint256"
        }
      ],
      "name": "Transfer",
      "type": "event"
    },
    {
      "inputs": [],
      "name": "CANNOT_TRANSFER_TO_ZERO_ADDRESS",
      "outputs": [
        {
          "internalType": "string",
          "name": "",
          "type": "string"
        }
      ],
      "stateMutability": "view",
      "type": "function"
    },
    {
      "inputs": [],
      "name": "NOT_CURRENT_OWNER",
      "outputs": [
        {
          "internalType": "string",
          "name": "",
          "type": "string"
        }
      ],
      "stateMutability": "view",
      "type": "function"
    },
    {
      "inputs": [
        {
          "internalType": "address",
          "name": "_approved",
          "type": "address"
        },
        {
          "internalType": "uint256",
          "name": "_tokenId",
          "type": "uint256"
        }
      ],
      "name": "approve",
      "outputs": [],
      "stateMutability": "nonpayable",
      "type": "function"
    },
    {
      "inputs": [
        {
          "internalType": "address",
          "name": "_owner",
          "type": "address"
        }
      ],
      "name": "balanceOf",
      "outputs": [
        {
          "internalType": "uint256",
          "name": "",
          "type": "uint256"
        }
      ],
      "stateMutability": "view",
      "type": "function"
    },
    {
      "inputs": [
        {
          "internalType": "uint256",
          "name": "_tokenId",
          "type": "uint256"
        }
      ],
      "name": "getApproved",
      "outputs": [
        {
          "internalType": "address",
          "name": "",
          "type": "address"
        }
      ],
      "stateMutability": "view",
      "type": "function"
    },
    {
      "inputs": [
        {
          "internalType": "address",
          "name": "_owner",
          "type": "address"
        },
        {
          "internalType": "address",
          "name": "_operator",
          "type": "address"
        }
      ],
      "name": "isApprovedForAll",
      "outputs": [
        {
          "internalType": "bool",
          "name": "",
          "type": "bool"
        }
      ],
      "stateMutability": "view",
      "type": "function"
    },
    {
      "inputs": [
        {
          "internalType": "address",
          "name": "_to",
          "type": "address"
        },
        {
          "internalType": "uint256",
          "name": "_tokenId",
          "type": "uint256"
        },
        {
          "internalType": "string",
          "name": "_uri",
          "type": "string"
        }
      ],
      "name": "mint",
      "outputs": [],
      "stateMutability": "nonpayable",
      "type": "function"
    },
    {
      "inputs": [],
      "name": "name",
      "outputs": [
        {
          "internalType": "string",
          "name": "_name",
          "type": "string"
        }
      ],
      "stateMutability": "view",
      "type": "function"
    },
    {
      "inputs": [],
      "name": "owner",
      "outputs": [
        {
          "internalType": "address",
          "name": "",
          "type": "address"
        }
      ],
      "stateMutability": "view",
      "type": "function"
    },
    {
      "inputs": [
        {
          "internalType": "uint256",
          "name": "_tokenId",
          "type": "uint256"
        }
      ],
      "name": "ownerOf",
      "outputs": [
        {
          "internalType": "address",
          "name": "_owner",
          "type": "address"
        }
      ],
      "stateMutability": "view",
      "type": "function"
    },
    {
      "inputs": [
        {
          "internalType": "address",
          "name": "_from",
          "type": "address"
        },
        {
          "internalType": "address",
          "name": "_to",
          "type": "address"
        },
        {
          "internalType": "uint256",
          "name": "_tokenId",
          "type": "uint256"
        }
      ],
      "name": "safeTransferFrom",
      "outputs": [],
      "stateMutability": "nonpayable",
      "type": "function"
    },
    {
      "inputs": [
        {
          "internalType": "address",
          "name": "_from",
          "type": "address"
        },
        {
          "internalType": "address",
          "name": "_to",
          "type": "address"
        },
        {
          "internalType": "uint256",
          "name": "_tokenId",
          "type": "uint256"
        },
        {
          "internalType": "bytes",
          "name": "_data",
          "type": "bytes"
        }
      ],
      "name": "safeTransferFrom",
      "outputs": [],
      "stateMutability": "nonpayable",
      "type": "function"
    },
    {
      "inputs": [
        {
          "internalType": "address",
          "name": "_operator",
          "type": "address"
        },
        {
          "internalType": "bool",
          "name": "_approved",
          "type": "bool"
        }
      ],
      "name": "setApprovalForAll",
      "outputs": [],
      "stateMutability": "nonpayable",
      "type": "function"
    },
    {
      "inputs": [
        {
          "internalType": "bytes4",
          "name": "_interfaceID",
          "type": "bytes4"
        }
      ],
      "name": "supportsInterface",
      "outputs": [
        {
          "internalType": "bool",
          "name": "",
          "type": "bool"
        }
      ],
      "stateMutability": "view",
      "type": "function"
    },
    {
      "inputs": [],
      "name": "symbol",
      "outputs": [
        {
          "internalType": "string",
          "name": "_symbol",
          "type": "string"
        }
      ],
      "stateMutability": "view",
      "type": "function"
    },
    {
      "inputs": [
        {
          "internalType": "uint256",
          "name": "_tokenId",
          "type": "uint256"
        }
      ],
      "name": "tokenURI",
      "outputs": [
        {
          "internalType": "string",
          "name": "",
          "type": "string"
        }
      ],
      "stateMutability": "view",
      "type": "function"
    },
    {
      "inputs": [
        {
          "internalType": "address",
          "name": "_from",
          "type": "address"
        },
        {
          "internalType": "address",
          "name": "_to",
          "type": "address"
        },
        {
          "internalType": "uint256",
          "name": "_tokenId",
          "type": "uint256"
        }
      ],
      "name": "transferFrom",
      "outputs": [],
      "stateMutability": "nonpayable",
      "type": "function"
    },
    {
      "inputs": [
        {
          "internalType": "address",
          "name": "_newOwner",
          "type": "address"
        }
      ],
      "name": "transferOwnership",
      "outputs": [],
      "stateMutability": "nonpayable",
      "type": "function"
    }
  ],
  "bytecode": {
    "object": "0x60806040523480156200001157600080fd5b50600060208181527f67be87c3ff9960ca1e9cfac5cab2ff4747269cf9ed20c9b7306235ac35a491c5805460ff1990811660019081179092557ff7815fccbf112960a73756e185887fedcb9fc64ca0a16cc5923b7960ed7808008054821683179055635b5e139f60e01b9093527f9562381dfbc2d8b8b66e765249f330164b73e329e5f01670660643571d1974df805490931617909155600880546001600160a01b0319163317905560408051808201909152601281527108240e0d8cae8d0dee4c240decc40ccd2e6d60731b91810191909152600590620000f49082620001cb565b5060408051808201909152600481526308c92a6960e31b60208201526006906200011f9082620001cb565b5062000297565b634e487b7160e01b600052604160045260246000fd5b600181811c908216806200015157607f821691505b6020821081036200017257634e487b7160e01b600052602260045260246000fd5b50919050565b601f821115620001c657600081815260208120601f850160051c81016020861015620001a15750805b601f850160051c820191505b81811015620001c257828155600101620001ad565b5050505b505050565b81516001600160401b03811115620001e757620001e762000126565b620001ff81620001f884546200013c565b8462000178565b602080601f8311600181146200023757600084156200021e5750858301515b600019600386901b1c1916600185901b178555620001c2565b600085815260208120601f198616915b82811015620002685788860151825594840194600190910190840162000247565b5085821015620002875787850151600019600388901b60f8161c191681555b5050505050600190811b01905550565b6116a980620002a76000396000f3fe608060405234801561001057600080fd5b50600436106101165760003560e01c80638da5cb5b116100a2578063c87b56dd11610071578063c87b56dd14610272578063d3fc986414610285578063e985e9c514610298578063f2fde38b146102d4578063f3fe3bc3146102e757600080fd5b80638da5cb5b1461023157806395d89b4114610244578063a22cb4651461024c578063b88d4fde1461025f57600080fd5b806323b872dd116100e957806323b872dd146101b257806342842e0e146101c55780636352211e146101d857806370a08231146101eb578063860d248a1461020c57600080fd5b806301ffc9a71461011b57806306fdde031461015d578063081812fc14610172578063095ea7b31461019d575b600080fd5b6101486101293660046111d8565b6001600160e01b03191660009081526020819052604090205460ff1690565b60405190151581526020015b60405180910390f35b61016561030c565b604051610154919061123b565b61018561018036600461124e565b61039e565b6040516001600160a01b039091168152602001610154565b6101b06101ab366004611283565b610420565b005b6101b06101c03660046112ad565b6105c1565b6101b06101d33660046112ad565b61077c565b6101856101e636600461124e565b61079c565b6101fe6101f93660046112e9565b6107f4565b604051908152602001610154565b6101656040518060400160405280600681526020016518189c18181960d11b81525081565b600854610185906001600160a01b031681565b61016561085c565b6101b061025a366004611304565b61086b565b6101b061026d366004611389565b6108d7565b61016561028036600461124e565b610920565b6101b06102933660046113f8565b61098c565b6101486102a6366004611452565b6001600160a01b03918216600090815260046020908152604080832093909416825291909152205460ff1690565b6101b06102e23660046112e9565b610a26565b6101656040518060400160405280600681526020016530313830303160d01b81525081565b60606005805461031b90611485565b80601f016020809104026020016040519081016040528092919081815260200182805461034790611485565b80156103945780601f1061036957610100808354040283529160200191610394565b820191906000526020600020905b81548152906001019060200180831161037757829003601f168201915b5050505050905090565b6000818152600160209081526040808320548151808301909252600682526518181998181960d11b9282019290925283916001600160a01b03166103fe5760405162461bcd60e51b81526004016103f5919061123b565b60405180910390fd5b506000838152600260205260409020546001600160a01b031691505b50919050565b60008181526001602052604090205481906001600160a01b03163381148061046b57506001600160a01b038116600090815260046020908152604080832033845290915290205460ff165b6040518060400160405280600681526020016530303330303360d01b815250906104a85760405162461bcd60e51b81526004016103f5919061123b565b50600083815260016020908152604091829020548251808401909352600683526518181998181960d11b918301919091528491906001600160a01b03166105025760405162461bcd60e51b81526004016103f5919061123b565b50600084815260016020908152604091829020548251808401909352600683526506060666060760d31b918301919091526001600160a01b039081169190871682036105615760405162461bcd60e51b81526004016103f5919061123b565b5060008581526002602052604080822080546001600160a01b0319166001600160a01b038a811691821790925591518893918516917f8c5be1e5ebec7d5bd14f71427d1e84f3dd0314c0f7b2291e5b200ac8c7c3b92591a4505050505050565b60008181526001602052604090205481906001600160a01b0316338114806105ff57506000828152600260205260409020546001600160a01b031633145b8061062d57506001600160a01b038116600090815260046020908152604080832033845290915290205460ff165b604051806040016040528060068152602001650c0c0ccc0c0d60d21b8152509061066a5760405162461bcd60e51b81526004016103f5919061123b565b50600083815260016020908152604091829020548251808401909352600683526518181998181960d11b918301919091528491906001600160a01b03166106c45760405162461bcd60e51b81526004016103f5919061123b565b50600084815260016020908152604091829020548251808401909352600683526530303330303760d01b918301919091526001600160a01b039081169190881682146107235760405162461bcd60e51b81526004016103f5919061123b565b5060408051808201909152600681526530303330303160d01b60208201526001600160a01b0387166107685760405162461bcd60e51b81526004016103f5919061123b565b506107738686610b11565b50505050505050565b61079783838360405180602001604052806000815250610b9c565b505050565b600081815260016020908152604091829020548251808401909352600683526518181998181960d11b918301919091526001600160a01b0316908161041a5760405162461bcd60e51b81526004016103f5919061123b565b60408051808201909152600681526530303330303160d01b60208201526000906001600160a01b03831661083b5760405162461bcd60e51b81526004016103f5919061123b565b506001600160a01b0382166000908152600360205260409020545b92915050565b60606006805461031b90611485565b3360008181526004602090815260408083206001600160a01b03871680855290835292819020805460ff191686151590811790915590519081529192917f17307eab39ab6107e8899845ad3d59bd9653f200f220920489ca2b5937696c31910160405180910390a35050565b61091985858585858080601f016020809104026020016040519081016040528093929190818152602001838380828437600092019190915250610b9c92505050565b5050505050565b600081815260016020908152604091829020548251808401909352600683526518181998181960d11b9183019190915260609183916001600160a01b031661097b5760405162461bcd60e51b81526004016103f5919061123b565b5061098583610e3b565b9392505050565b60085460408051808201909152600681526530313830303160d01b6020820152906001600160a01b031633146109d55760405162461bcd60e51b81526004016103f5919061123b565b506109e08484610edd565b610a208383838080601f016020809104026020016040519081016040528093929190818152602001838380828437600092019190915250610fc092505050565b50505050565b60085460408051808201909152600681526530313830303160d01b6020820152906001600160a01b03163314610a6f5760405162461bcd60e51b81526004016103f5919061123b565b5060408051808201909152600681526518189c18181960d11b60208201526001600160a01b038216610ab45760405162461bcd60e51b81526004016103f5919061123b565b506008546040516001600160a01b038084169216907f8be0079c531659141344cd1fd0a4f28419497f9722a3daafe3b4186f6b6457e090600090a3600880546001600160a01b0319166001600160a01b0392909216919091179055565b600081815260016020908152604080832054600290925290912080546001600160a01b03191690556001600160a01b0316610b4c8183611032565b610b5683836110db565b81836001600160a01b0316826001600160a01b03167fddf252ad1be2c89b69c2b068fc378daa952ba7f163c4a11628f55a4df523b3ef60405160405180910390a4505050565b60008281526001602052604090205482906001600160a01b031633811480610bda57506000828152600260205260409020546001600160a01b031633145b80610c0857506001600160a01b038116600090815260046020908152604080832033845290915290205460ff165b604051806040016040528060068152602001650c0c0ccc0c0d60d21b81525090610c455760405162461bcd60e51b81526004016103f5919061123b565b50600084815260016020908152604091829020548251808401909352600683526518181998181960d11b918301919091528591906001600160a01b0316610c9f5760405162461bcd60e51b81526004016103f5919061123b565b50600085815260016020908152604091829020548251808401909352600683526530303330303760d01b918301919091526001600160a01b03908116919089168214610cfe5760405162461bcd60e51b81526004016103f5919061123b565b5060408051808201909152600681526530303330303160d01b60208201526001600160a01b038816610d435760405162461bcd60e51b81526004016103f5919061123b565b50610d4e8787610b11565b610d60876001600160a01b0316611183565b15610e3157604051630a85bd0160e11b81526000906001600160a01b0389169063150b7a0290610d9a9033908d908c908c906004016114b9565b6020604051808303816000875af1158015610db9573d6000803e3d6000fd5b505050506040513d601f19601f82011682018060405250810190610ddd91906114f6565b60408051808201909152600681526530303330303560d01b60208201529091506001600160e01b03198216630a85bd0160e11b14610e2e5760405162461bcd60e51b81526004016103f5919061123b565b50505b5050505050505050565b6000818152600760205260409020805460609190610e5890611485565b80601f0160208091040260200160405190810160405280929190818152602001828054610e8490611485565b8015610ed15780601f10610ea657610100808354040283529160200191610ed1565b820191906000526020600020905b815481529060010190602001808311610eb457829003601f168201915b50505050509050919050565b60408051808201909152600681526530303330303160d01b60208201526001600160a01b038316610f215760405162461bcd60e51b81526004016103f5919061123b565b50600081815260016020908152604091829020548251808401909352600683526518181998181b60d11b918301919091526001600160a01b031615610f795760405162461bcd60e51b81526004016103f5919061123b565b50610f8482826110db565b60405181906001600160a01b038416906000907fddf252ad1be2c89b69c2b068fc378daa952ba7f163c4a11628f55a4df523b3ef908290a45050565b600082815260016020908152604091829020548251808401909352600683526518181998181960d11b918301919091528391906001600160a01b03166110195760405162461bcd60e51b81526004016103f5919061123b565b506000838152600760205260409020610a208382611577565b600081815260016020908152604091829020548251808401909352600683526530303330303760d01b918301919091526001600160a01b0384811691161461108d5760405162461bcd60e51b81526004016103f5919061123b565b506001600160a01b03821660009081526003602052604081208054600192906110b790849061164d565b9091555050600090815260016020526040902080546001600160a01b031916905550565b600081815260016020908152604091829020548251808401909352600683526518181998181b60d11b918301919091526001600160a01b0316156111325760405162461bcd60e51b81526004016103f5919061123b565b50600081815260016020818152604080842080546001600160a01b0319166001600160a01b03881690811790915584526003909152822080549192909161117a908490611660565b90915550505050565b6000813f7fc5d2460186f7233c927e7db2dcc703c0e500b653ca82273b7bfad8045d85a47081158015906111b75750808214155b949350505050565b6001600160e01b0319811681146111d557600080fd5b50565b6000602082840312156111ea57600080fd5b8135610985816111bf565b6000815180845260005b8181101561121b576020818501810151868301820152016111ff565b506000602082860101526020601f19601f83011685010191505092915050565b60208152600061098560208301846111f5565b60006020828403121561126057600080fd5b5035919050565b80356001600160a01b038116811461127e57600080fd5b919050565b6000806040838503121561129657600080fd5b61129f83611267565b946020939093013593505050565b6000806000606084860312156112c257600080fd5b6112cb84611267565b92506112d960208501611267565b9150604084013590509250925092565b6000602082840312156112fb57600080fd5b61098582611267565b6000806040838503121561131757600080fd5b61132083611267565b91506020830135801515811461133557600080fd5b809150509250929050565b60008083601f84011261135257600080fd5b50813567ffffffffffffffff81111561136a57600080fd5b60208301915083602082850101111561138257600080fd5b9250929050565b6000806000806000608086880312156113a157600080fd5b6113aa86611267565b94506113b860208701611267565b935060408601359250606086013567ffffffffffffffff8111156113db57600080fd5b6113e788828901611340565b969995985093965092949392505050565b6000806000806060858703121561140e57600080fd5b61141785611267565b935060208501359250604085013567ffffffffffffffff81111561143a57600080fd5b61144687828801611340565b95989497509550505050565b6000806040838503121561146557600080fd5b61146e83611267565b915061147c60208401611267565b90509250929050565b600181811c9082168061149957607f821691505b60208210810361041a57634e487b7160e01b600052602260045260246000fd5b6001600160a01b03858116825284166020820152604081018390526080606082018190526000906114ec908301846111f5565b9695505050505050565b60006020828403121561150857600080fd5b8151610985816111bf565b634e487b7160e01b600052604160045260246000fd5b601f82111561079757600081815260208120601f850160051c810160208610156115505750805b601f850160051c820191505b8181101561156f5782815560010161155c565b505050505050565b815167ffffffffffffffff81111561159157611591611513565b6115a58161159f8454611485565b84611529565b602080601f8311600181146115da57600084156115c25750858301515b600019600386901b1c1916600185901b17855561156f565b600085815260208120601f198616915b82811015611609578886015182559484019460019091019084016115ea565b50858210156116275787850151600019600388901b60f8161c191681555b5050505050600190811b01905550565b634e487b7160e01b600052601160045260246000fd5b8181038181111561085657610856611637565b808201808211156108565761085661163756fea2646970667358221220b0d2df4ae7d9973fc2f311090ef264d93849a51852d53d2e81a045e3203fc6fa64736f6c63430008120033",
    "linkReferences": {}
  },
  "methodIdentifiers": {
    "CANNOT_TRANSFER_TO_ZERO_ADDRESS()": "860d248a",
    "NOT_CURRENT_OWNER()": "f3fe3bc3",
    "approve(address,uint256)": "095ea7b3",
    "balanceOf(address)": "70a08231",
    "getApproved(uint256)": "081812fc",
    "isApprovedForAll(address,address)": "e985e9c5",
    "mint(address,uint256,string)": "d3fc9864",
    "name()": "06fdde03",
    "owner()": "8da5cb5b",
    "ownerOf(uint256)": "6352211e",
    "safeTransferFrom(address,address,uint256)": "42842e0e",
    "safeTransferFrom(address,address,uint256,bytes)": "b88d4fde",
    "setApprovalForAll(address,bool)": "a22cb465",
    "supportsInterface(bytes4)": "01ffc9a7",
    "symbol()": "95d89b41",
    "tokenURI(uint256)": "c87b56dd",
    "transferFrom(address,address,uint256)": "23b872dd",
    "transferOwnership(address)": "f2fde38b"
  },
  "id": 9
}